{
  "contractName": "MedicalLogging",
  "abi": [
    {
      "inputs": [],
      "stateMutability": "nonpayable",
      "type": "constructor"
    },
    {
      "inputs": [],
      "name": "hospitalCount",
      "outputs": [
        {
          "internalType": "uint256",
          "name": "",
          "type": "uint256"
        }
      ],
      "stateMutability": "view",
      "type": "function",
      "constant": true
    },
    {
      "inputs": [],
      "name": "owner",
      "outputs": [
        {
          "internalType": "address",
          "name": "",
          "type": "address"
        }
      ],
      "stateMutability": "view",
      "type": "function",
      "constant": true
    },
    {
      "inputs": [
        {
          "internalType": "string",
          "name": "_transactionHash",
          "type": "string"
        },
        {
          "internalType": "string",
          "name": "_date",
          "type": "string"
        }
      ],
      "name": "addHospitalRecord",
      "outputs": [],
      "stateMutability": "nonpayable",
      "type": "function"
    },
    {
      "inputs": [
        {
          "internalType": "address",
          "name": "_address",
          "type": "address"
        }
      ],
      "name": "getHospitalRecord",
      "outputs": [
        {
          "components": [
            {
              "components": [
                {
                  "internalType": "string",
                  "name": "transactionHash",
                  "type": "string"
                },
                {
                  "internalType": "string",
                  "name": "date",
                  "type": "string"
                }
              ],
              "internalType": "struct MedicalLogging.LoggingDetail[]",
              "name": "loggings",
              "type": "tuple[]"
            },
            {
              "internalType": "uint256",
              "name": "loggingsCount",
              "type": "uint256"
            }
          ],
          "internalType": "struct MedicalLogging.Hospital",
          "name": "",
          "type": "tuple"
        }
      ],
      "stateMutability": "view",
      "type": "function",
      "constant": true
    },
    {
      "inputs": [],
      "name": "getHospitalRecords",
      "outputs": [
        {
          "components": [
            {
              "components": [
                {
                  "internalType": "string",
                  "name": "transactionHash",
                  "type": "string"
                },
                {
                  "internalType": "string",
                  "name": "date",
                  "type": "string"
                }
              ],
              "internalType": "struct MedicalLogging.LoggingDetail[]",
              "name": "loggings",
              "type": "tuple[]"
            },
            {
              "internalType": "uint256",
              "name": "loggingsCount",
              "type": "uint256"
            }
          ],
          "internalType": "struct MedicalLogging.Hospital[]",
          "name": "",
          "type": "tuple[]"
        }
      ],
      "stateMutability": "view",
      "type": "function",
      "constant": true
    }
  ],
  "bytecode": "0x608060405234801561001057600080fd5b50336000806101000a81548173ffffffffffffffffffffffffffffffffffffffff021916908373ffffffffffffffffffffffffffffffffffffffff1602179055506110cb806100606000396000f3fe608060405234801561001057600080fd5b50600436106100575760003560e01c8063350dadb71461005c5780638da5cb5b1461007a57806395ae513314610098578063b73db497146100b4578063f65bbeaa146100d2575b600080fd5b610064610102565b6040516100719190610752565b60405180910390f35b610082610108565b60405161008f91906107ae565b60405180910390f35b6100b260048036038101906100ad9190610923565b61012c565b005b6100bc61027f565b6040516100c99190610c37565b60405180910390f35b6100ec60048036038101906100e79190610c85565b610539565b6040516100f99190610cef565b60405180910390f35b60025481565b60008054906101000a900473ffffffffffffffffffffffffffffffffffffffff1681565b6000600160003373ffffffffffffffffffffffffffffffffffffffff1673ffffffffffffffffffffffffffffffffffffffff1681526020019081526020016000209050600060405180604001604052808581526020018481525090508160000181908060018154018082558091505060019003906000526020600020906002020160009091909190915060008201518160000190816101cb9190610f1d565b5060208201518160010190816101e19190610f1d565b5050508160010160008154809291906101f99061101e565b91905055506003339080600181540180825580915050600190039060005260206000200160009091909190916101000a81548173ffffffffffffffffffffffffffffffffffffffff021916908373ffffffffffffffffffffffffffffffffffffffff160217905550600260008154809291906102749061101e565b919050555050505050565b6060600060025467ffffffffffffffff81111561029f5761029e6107f8565b5b6040519080825280602002602001820160405280156102d857816020015b6102c561071f565b8152602001906001900390816102bd5790505b50905060005b60038054905081101561053157600160006003838154811061030357610302611066565b5b9060005260206000200160009054906101000a900473ffffffffffffffffffffffffffffffffffffffff1673ffffffffffffffffffffffffffffffffffffffff1673ffffffffffffffffffffffffffffffffffffffff16815260200190815260200160002060405180604001604052908160008201805480602002602001604051908101604052809291908181526020016000905b828210156104ee57838290600052602060002090600202016040518060400160405290816000820180546103cb90610d40565b80601f01602080910402602001604051908101604052809291908181526020018280546103f790610d40565b80156104445780601f1061041957610100808354040283529160200191610444565b820191906000526020600020905b81548152906001019060200180831161042757829003601f168201915b5050505050815260200160018201805461045d90610d40565b80601f016020809104026020016040519081016040528092919081815260200182805461048990610d40565b80156104d65780601f106104ab576101008083540402835291602001916104d6565b820191906000526020600020905b8154815290600101906020018083116104b957829003601f168201915b50505050508152505081526020019060010190610398565b50505050815260200160018201548152505082828151811061051357610512611066565b5b602002602001018190525080806105299061101e565b9150506102de565b508091505090565b61054161071f565b600160008373ffffffffffffffffffffffffffffffffffffffff1673ffffffffffffffffffffffffffffffffffffffff16815260200190815260200160002060405180604001604052908160008201805480602002602001604051908101604052809291908181526020016000905b8282101561070657838290600052602060002090600202016040518060400160405290816000820180546105e390610d40565b80601f016020809104026020016040519081016040528092919081815260200182805461060f90610d40565b801561065c5780601f106106315761010080835404028352916020019161065c565b820191906000526020600020905b81548152906001019060200180831161063f57829003601f168201915b5050505050815260200160018201805461067590610d40565b80601f01602080910402602001604051908101604052809291908181526020018280546106a190610d40565b80156106ee5780601f106106c3576101008083540402835291602001916106ee565b820191906000526020600020905b8154815290600101906020018083116106d157829003601f168201915b505050505081525050815260200190600101906105b0565b5050505081526020016001820154815250509050919050565b604051806040016040528060608152602001600081525090565b6000819050919050565b61074c81610739565b82525050565b60006020820190506107676000830184610743565b92915050565b600073ffffffffffffffffffffffffffffffffffffffff82169050919050565b60006107988261076d565b9050919050565b6107a88161078d565b82525050565b60006020820190506107c3600083018461079f565b92915050565b6000604051905090565b600080fd5b600080fd5b600080fd5b600080fd5b6000601f19601f8301169050919050565b7f4e487b7100000000000000000000000000000000000000000000000000000000600052604160045260246000fd5b610830826107e7565b810181811067ffffffffffffffff8211171561084f5761084e6107f8565b5b80604052505050565b60006108626107c9565b905061086e8282610827565b919050565b600067ffffffffffffffff82111561088e5761088d6107f8565b5b610897826107e7565b9050602081019050919050565b82818337600083830152505050565b60006108c66108c184610873565b610858565b9050828152602081018484840111156108e2576108e16107e2565b5b6108ed8482856108a4565b509392505050565b600082601f83011261090a576109096107dd565b5b813561091a8482602086016108b3565b91505092915050565b6000806040838503121561093a576109396107d3565b5b600083013567ffffffffffffffff811115610958576109576107d8565b5b610964858286016108f5565b925050602083013567ffffffffffffffff811115610985576109846107d8565b5b610991858286016108f5565b9150509250929050565b600081519050919050565b600082825260208201905092915050565b6000819050602082019050919050565b600081519050919050565b600082825260208201905092915050565b6000819050602082019050919050565b600081519050919050565b600082825260208201905092915050565b60005b83811015610a2d578082015181840152602081019050610a12565b83811115610a3c576000848401525b50505050565b6000610a4d826109f3565b610a5781856109fe565b9350610a67818560208601610a0f565b610a70816107e7565b840191505092915050565b60006040830160008301518482036000860152610a988282610a42565b91505060208301518482036020860152610ab28282610a42565b9150508091505092915050565b6000610acb8383610a7b565b905092915050565b6000602082019050919050565b6000610aeb826109c7565b610af581856109d2565b935083602082028501610b07856109e3565b8060005b85811015610b435784840389528151610b248582610abf565b9450610b2f83610ad3565b925060208a01995050600181019050610b0b565b50829750879550505050505092915050565b610b5e81610739565b82525050565b60006040830160008301518482036000860152610b818282610ae0565b9150506020830151610b966020860182610b55565b508091505092915050565b6000610bad8383610b64565b905092915050565b6000602082019050919050565b6000610bcd8261099b565b610bd781856109a6565b935083602082028501610be9856109b7565b8060005b85811015610c255784840389528151610c068582610ba1565b9450610c1183610bb5565b925060208a01995050600181019050610bed565b50829750879550505050505092915050565b60006020820190508181036000830152610c518184610bc2565b905092915050565b610c628161078d565b8114610c6d57600080fd5b50565b600081359050610c7f81610c59565b92915050565b600060208284031215610c9b57610c9a6107d3565b5b6000610ca984828501610c70565b91505092915050565b60006040830160008301518482036000860152610ccf8282610ae0565b9150506020830151610ce46020860182610b55565b508091505092915050565b60006020820190508181036000830152610d098184610cb2565b905092915050565b7f4e487b7100000000000000000000000000000000000000000000000000000000600052602260045260246000fd5b60006002820490506001821680610d5857607f821691505b602082108103610d6b57610d6a610d11565b5b50919050565b60008190508160005260206000209050919050565b60006020601f8301049050919050565b600082821b905092915050565b600060088302610dd37fffffffffffffffffffffffffffffffffffffffffffffffffffffffffffffffff82610d96565b610ddd8683610d96565b95508019841693508086168417925050509392505050565b6000819050919050565b6000610e1a610e15610e1084610739565b610df5565b610739565b9050919050565b6000819050919050565b610e3483610dff565b610e48610e4082610e21565b848454610da3565b825550505050565b600090565b610e5d610e50565b610e68818484610e2b565b505050565b5b81811015610e8c57610e81600082610e55565b600181019050610e6e565b5050565b601f821115610ed157610ea281610d71565b610eab84610d86565b81016020851015610eba578190505b610ece610ec685610d86565b830182610e6d565b50505b505050565b600082821c905092915050565b6000610ef460001984600802610ed6565b1980831691505092915050565b6000610f0d8383610ee3565b9150826002028217905092915050565b610f26826109f3565b67ffffffffffffffff811115610f3f57610f3e6107f8565b5b610f498254610d40565b610f54828285610e90565b600060209050601f831160018114610f875760008415610f75578287015190505b610f7f8582610f01565b865550610fe7565b601f198416610f9586610d71565b60005b82811015610fbd57848901518255600182019150602085019450602081019050610f98565b86831015610fda5784890151610fd6601f891682610ee3565b8355505b6001600288020188555050505b505050505050565b7f4e487b7100000000000000000000000000000000000000000000000000000000600052601160045260246000fd5b600061102982610739565b91507fffffffffffffffffffffffffffffffffffffffffffffffffffffffffffffffff820361105b5761105a610fef565b5b600182019050919050565b7f4e487b7100000000000000000000000000000000000000000000000000000000600052603260045260246000fdfea26469706673582212204a45704d9f948aca3ad3ce44976fa4934d9c3819e2feed44c2ca285987f79a1664736f6c634300080f0033",
  "immutableReferences": {},
  "source": "// SPDX-License-Identifier: MIT\npragma solidity ^0.8.15;\n\ncontract MedicalLogging {\n\t\taddress public owner;\n\t\t\n\t\t// constructor\n    constructor() {\n        owner = msg.sender; //     owner  \n    }\n    \n\t\tstruct LoggingDetail {\n        string transactionHash;\n        string date;\n    }\n    \n    struct Hospital{\n\t\t\t  LoggingDetail[] loggings;\n\t\t\t  uint256 loggingsCount;\n\t\t}\n\t\t\n\t\t\n\t\tmapping(address => Hospital) private hospitals;\n\t\tuint256 public hospitalCount;\n    address[] private hospitalKeys;\n     \n\t\t//   \n    function addHospitalRecord(\n        string memory _transactionHash,\n        string memory _date\n    ) public {\n        Hospital storage record = hospitals[msg.sender];\n        LoggingDetail memory detail = LoggingDetail({\n            transactionHash: _transactionHash,\n            date: _date\n        });\n        \n        record.loggings.push(detail);\n\t\t\t  record.loggingsCount++;\n\t\t\t  \n        // getter \n\t\t\t\thospitalKeys.push(msg.sender);\n\t\t\t\thospitalCount++;\n    }\n\t\t\n\t\tfunction getHospitalRecord(address _address) public view returns (Hospital memory) {\n        return hospitals[_address];\n    }\n    \n    function getHospitalRecords() public view returns (Hospital[] memory){\n\t\t    Hospital[] memory records = new Hospital[](hospitalCount);\n\t\t\t\tfor (uint256 i = 0; i < hospitalKeys.length; i++) {\n\t\t\t\t\t\trecords[i] = hospitals[hospitalKeys[i]];\n\t\t\t\t}\n\t\t\t\treturn records;\n    }\n\t\t\n}\n",
  "sourcePath": "/home/wkdcodms127/logging/contracts/MedicalLogging.sol",
  "compiler": {
    "name": "solc",
    "version": "0.8.15+commit.e14f2714.Emscripten.clang"
  },
  "schemaVersion": "3.4.8",
  "updatedAt": "2024-04-18T05:56:50.021Z",
  "networkType": "ethereum",
  "devdoc": {
    "kind": "dev",
    "methods": {},
    "version": 1
  },
  "userdoc": {
    "kind": "user",
    "methods": {},
    "version": 1
  }
}